:100000000C9434000C9451000C9451000C94CB00CF
:100010000C9451000C9451000C9451000C9451001C
:100020000C9451000C9451000C9451000C9451000C
:100030000C9451000C9451000C9451000C945100FC
:100040000C9451000C9451000C9466010C945100D6
:100050000C9451000C9451000C9451000C945100DC
:100060000C9451000C94510011241FBECFEFD8E026
:10007000DEBFCDBF11E0A0E0B1E0E4E4F3E002C0F8
:1000800005900D92AC30B107D9F721E0ACE0B1E0BA
:1000900001C01D92AE37B207E1F70E949B010C949C
:1000A000A0010C9400002D9A80911601813041F43A
:1000B00080911501811104C08BE08093110110C063
:1000C00080911601811108C080911501813021F4C1
:1000D00086E18093110119C0809111018B3099F450
:1000E00080911301813041F51092130180910E012E
:1000F0008F5F80930E018630F8F081E080931001CD
:10010000109216011DC08631B9F480911201813020
:1001100099F41092120180910D018F5F80930D016F
:10012000863050F081E080930F011092150180918C
:1001300010018130B1F408C080911001813089F440
:1001400080910F01813069F480910C018F5F809361
:100150000C011092100110920F0110920E011092DA
:100160000D01089587E690E00E941A010E94C100E7
:1001700080E284B978946AE080E091E00E944901CD
:10018000089584B1807F84B981E0809368008FE016
:1001900080936B0008951F920F920FB60F92112457
:1001A0002F933F934F935F936F937F938F939F937F
:1001B000AF93BF93EF93FF9383B18F708430A9F017
:1001C000883021F1823029F5809111018B3021F4A2
:1001D00081E08093130103C081E0809316016AE0FF
:1001E00087E091E00E94490114C08091110186319D
:1001F00021F481E08093120103C081E08093150116
:100200006AE089E091E00E94490103C081E08093A7
:100210001401FF91EF91BF91AF919F918F917F91C9
:100220006F915F914F913F912F910F900FBE0F9063
:100230001F9018959093C5008093C40088E980931F
:10024000C1008EE08093C2000895E0ECF0E0908160
:1002500095FFFDCF8093C60008958A3010F4805D2D
:100260000895895C0895CF93DF93C82F82958F708E
:100270000E942D01D82F8C2F8F700E942D01C82F26
:100280008D2F0E9425018C2F0E942501DF91CF9197
:100290000895CF93DF93EC016A3051F4888188236D
:1002A00091F021960E94250189918111FBCF0BC00D
:1002B0006B3049F48881882331F021960E94330104
:1002C00089918111FBCFDF91CF9108951F920F92F9
:1002D0000FB60F9211248F939F93AF93BF93EF9319
:1002E000FF939091C60090934B01E091180181E03B
:1002F0008E0F80931801F0E0E75EFE4F908385300B
:1003000079F4E9E1F1E0ACE4B1E001900D928A9575
:10031000E1F7109251011092180181E080931701CA
:10032000FF91EF91BF91AF919F918F910F900FBE71
:100330000F901F9018950E94B2000E945300FDCFAD
:04034000F894FFCF5F
:0C03440053544152540A003200340000AF
:00000001FF
