:100000000C9434000C9451000C9451000C94650134
:100010000C9451000C9451000C9451000C9451001C
:100020000C9451000C9451000C9451000C9451000C
:100030000C9451000C9451000C9451000C945100FC
:100040000C9451000C9451000C9454020C945100E7
:100050000C9451000C9451000C9451000C945100DC
:100060000C9451000C94510011241FBECFEFD8E026
:10007000DEBFCDBF11E0A0E0B1E0E6E2F5E002C0F6
:1000800005900D92AC31B107D9F721E0ACE1B1E0B8
:1000900001C01D92A839B207E1F70E948C020C94AE
:1000A00091020C94000087E690E00E9408020E94F2
:1000B0005B0178946AE082E091E00E943702089543
:1000C0008AEE0E94130280911D010E94130280910A
:1000D00000010E9413028AE50E9413020895109203
:1000E000200110921D0110921E0110922C011092FD
:1000F0001C0110921F01109200010E9460000895DF
:1001000080912D01813001F510922D0180916601C1
:100110008A3E21F4809168018A3531F0E6E6F1E00B
:100120001082118212820895809167018E3E39F407
:100130006AE089E091E00E9437020E946F00E6E6E3
:10014000F1E010821182128208950E948000809155
:100150002B01813009F0AEC010922B018091270154
:100160008130B1F480912801811112C08091290160
:1001700081110EC080912A01813051F48BE080936F
:100180002C01E7E2F1E010821182128213821DC07D
:1001900080912701811119C0809128018130A9F433
:1001A00080912901813089F480912A0181110DC04B
:1001B00086E180932C01E7E2F1E010821182128245
:1001C000138281E08093200104C08091200181305E
:1001D000E9F490911C0180912C01981799F080917D
:1001E0001E018F5F80FF03C080931E010BC0109221
:1001F0001E0180911D018F5F80931D010E94600090
:100200001092200180912C0180931C018091230188
:10021000813021F580912401811120C08091250138
:1002200081111CC0809126018130C1F480910101AF
:100230008F5F80930101853041F4809100018F5FD1
:100240008093000181E0809301010E946000E3E25D
:10025000F1E01082118212821382089580912301AD
:10026000811128C080912401813021F580912501E0
:10027000813001F58091260181111CC0809101011E
:1002800081508093010181110DC080910001815046
:100290008093000194E090930101811103C081E0FB
:1002A000809300010E946000E3E2F1E0108211827D
:1002B00012821382089584B1807F84B981E0809393
:1002C00068008FE080936B0008951F920F920FB625
:1002D0000F9211248F939F93EF93FF9383B191E03B
:1002E00090932B018F70823059F020F4813009F403
:1002F00048C085C0843021F1883009F461C07FC0D6
:10030000E091220181E08E0F80932201F0E081E0F4
:1003100080933001E95DFE4F8083E09122018E0FD2
:1003200080932201F0E010922F01E95DFE4F1082D0
:1003300080912201843008F462C0109222015FC0D3
:10034000E091220181E08E0F80932201F0E0109273
:100350003001E95DFE4F1082E091220181E08E0FB5
:1003600080932201F0E081E080932F01E95DFE4F50
:10037000808380912201843008F441C010922201D0
:100380003EC0E091210181E08E0F80932101F0E0D9
:1003900081E080933101ED5DFE4F8083E09121018A
:1003A0008E0F80932101F0E010922E01ED5DFE4F43
:1003B000108280912101843010F1109221011FC020
:1003C000E091210181E08E0F80932101F0E01092F5
:1003D0003101ED5DFE4F1082E091210181E08E0F31
:1003E00080932101F0E081E080932E01ED5DFE4FCE
:1003F000808380912101843010F010922101FF91BF
:10040000EF919F918F910F900FBE0F901F901895B5
:100410009093C5008093C40088E98093C1008EE06A
:100420008093C2000895E0ECF0E0908195FFFDCF4D
:100430008093C60008958A3010F4805D0895895C29
:100440000895CF93DF93C82F82958F700E941B026F
:10045000D82F8C2F8F700E941B02C82F8D2F0E94C7
:1004600013028C2F0E941302DF91CF910895CF9336
:10047000DF93EC016A3051F48881882391F0219652
:100480000E94130289918111FBCF0BC06B3049F49C
:100490008881882331F021960E942102899181115F
:1004A000FBCFDF91CF9108951F920F920FB60F925D
:1004B00011248F939F93AF93BF93EF93FF939091EA
:1004C000C60090936501E091320181E08E0F809328
:1004D0003201F0E0ED5CFE4F9083833091F4E6E66C
:1004E000F1E0A3E3B1E08D919C911197918380831A
:1004F00012968C91828313821092320181E0809354
:100500002D01FF91EF91BF91AF919F918F910F902E
:100510000FBE0F901F9018950E9453000E94A500D7
:06052000FDCFF894FFCFAF
:10052600010153544152540A00496E697469616C61
:0C0536006C697A696E672E2E2E2E0A006A
:00000001FF
