:100000000C9434000C9446000C9446000C94F700B9
:100010000C9446000C9446000C9446000C94460048
:100020000C9446000C9446000C9446000C94460038
:100030000C9446000C9446000C9446000C94460028
:100040000C9446000C9446000C9482010C944600DB
:100050000C9446000C9446000C9446000C94460008
:100060000C9446000C94460011241FBECFEFD8E03C
:10007000DEBFCDBF21E0A0E0B1E001C01D92A837F6
:10008000B207E1F70E94BA010C94BF010C94000082
:1000900087E690E00E946F010E94ED007894089539
:1000A0008AEE0E947A01809101010E947A0180E02B
:1000B0000E947A018AE50E947A0108951092030154
:1000C000109201011092020110920A011092000197
:1000D0000E945000089580910F018130D9F4109250
:1000E0000F01809146018A3E21F4809148018A35B2
:1000F00031F0E6E4F1E010821182128208958091DD
:1001000047018E3E11F40E945E00E6E4F1E01082A9
:100110001182128208950E946B0080910901813042
:1001200009F05AC010920901809105018130B1F4A3
:1001300080910601811112C08091070181110EC0CA
:1001400080910801813051F48BE080930A01E5E051
:10015000F1E010821182128213821DC0809105018C
:10016000811119C0809106018130A9F480910701A5
:10017000813089F48091080181110DC086E180935E
:100180000A01E5E0F1E0108211821282138281E01F
:100190008093030104C0809103018130E9F49091C0
:1001A000000180910A01981799F0809102018F5FF8
:1001B00080FF03C0809302010BC010920201809166
:1001C00001018F5F809301010E9450001092030192
:1001D00080910A0180930001089584B1807F84B9E1
:1001E00081E0809368008FE080936B0008951F92F8
:1001F0000F920FB60F9211248F939F93EF93FF935B
:1002000083B191E0909309018F70823019F08430AE
:1002100079F15CC0E091040181E08E0F80930401CC
:10022000F0E081E080931101EB5FFE4F8083E0916D
:1002300004018E0F80930401F0E010921001EB5F37
:10024000FE4F108280910401843010F0109204015E
:1002500080910A018B3031F481E080930E0110927D
:100260000D0134C010920E0181E080930D012EC06B
:10027000E091040181E08E0F80930401F0E0109280
:100280001101EB5FFE4F1082E091040181E08E0FBF
:1002900080930401F0E081E080931001EB5FFE4F5A
:1002A000808380910401843010F0109204018091C9
:1002B0000A018B3031F410920C0181E080930B0124
:1002C00005C081E080930C0110920B01FF91EF912A
:1002D0009F918F910F900FBE0F901F901895909344
:1002E000C5008093C40088E98093C1008EE08093AC
:1002F000C2000895E0ECF0E0908195FFFDCF80937F
:10030000C60008951F920F920FB60F9211248F937B
:100310009F93AF93BF93EF93FF939091C6009093F9
:100320004501E091120181E08E0F80931201F0E00F
:10033000ED5EFE4F9083833091F4E6E4F1E0A3E1BB
:10034000B1E08D919C9111979183808312968C914D
:10035000828313821092120181E080930F01FF913A
:10036000EF91BF91AF919F918F910F900FBE0F9022
:100370001F9018950E9448000E948B00FDCFF894B2
:02038000FFCFAD
:00000001FF
