S00F0000486F6D654669742E7372656369
S11300000C9434000C9451000C9451000C94C000D6
S11300100C9451000C9451000C9451000C94510018
S11300200C9451000C9451000C9451000C94510008
S11300300C9451000C9451000C9451000C945100F8
S11300400C9451000C9451000C9449010C945100EF
S11300500C9451000C9451000C9451000C945100D8
S11300600C9451000C94510011241FBECFEFD8E022
S1130070DEBFCDBF11E0A0E0B1E0EAE0F3E002C0F2
S113008005900D92A830B107D9F721E0A8E0B1E0BE
S113009001C01D92AC37B207E1F70E947E010C94B7
S11300A083010C9400002D9A80910E01813009F097
S11300B04DC010920E0180911401813041F4809161
S11300C01301811104C08BE080930F0104C080915F
S11300D00F018B30D9F580911101EAE0F1E08083C2
S11300E090911001918390910801891326C0809109
S11300F00D018F5F80FF03C080930D0114C0109227
S11301000D0180910C018F5F80930C018AEE0E9497
S1130110080180910C010E94080183E30E940801F8
S11301208AE50E9408019091090180910B019813BE
S113013004C01092140110921301E8E0F1E0AAE067
S1130140B1E08C91808311968C918183089587E628
S113015090E00E94FD000E94B60080E284B9789489
S11301606AE080E091E00E942C01089584B1807FD0
S113017084B981E0809368008FE080936B000895D8
S11301801F920F920FB60F9211248F9383B18F7029
S11301908430C9F0883041F1823049F581E08093A0
S11301A00E0180910F018B3031F41092110181E026
S11301B0809310011CC081E080931401809311018D
S11301C01092100114C081E080930E0180910F0100
S11301D08B3031F481E0809311011092100107C03B
S11301E081E08093130103C081E0809312018F9119
S11301F00F900FBE0F901F9018959093C500809399
S1130200C40088E98093C1008EE08093C200089501
S1130210E0ECF0E0908195FFFDCF8093C600089557
S11302208A3010F4805D0895895C0895CF93DF933C
S1130230C82F82958F700E941001D82F8C2F8F7039
S11302400E941001C82F8D2F0E9408018C2F0E943C
S11302500801DF91CF910895CF93DF93EC016A30C9
S113026051F48881882391F021960E940801899194
S11302708111FBCF0BC06B3049F48881882331F0A6
S113028021960E94160189918111FBCFDF91CF91B4
S113029008951F920F920FB60F9211248F939F937C
S11302A0AF93BF93EF93FF939091C600909349014E
S11302B0E091160181E08E0F80931601F0E0E95E73
S11302C0FE4F9083853079F4E7E1F1E0AAE4B1E0F0
S11302D001900D928A95E1F710924F011092160148
S11302E081E080931501FF91EF91BF91AF919F91B0
S11302F08F910F900FBE0F901F9018950E94A7002A
S10D03000E945300FDCFF894FFCFD4
S10B030A53544152540A00004F
S9030000FC
