S00F0000486F6D654669742E7372656369
S11300000C9434000C9451000C9451000C94650130
S11300100C9451000C9451000C9451000C94510018
S11300200C9451000C9451000C9451000C94510008
S11300300C9451000C9451000C9451000C945100F8
S11300400C9451000C9451000C9454020C945100E3
S11300500C9451000C9451000C9451000C945100D8
S11300600C9451000C94510011241FBECFEFD8E022
S1130070DEBFCDBF11E0A0E0B1E0E6E2F5E002C0F2
S113008005900D92A034B107D9F721E0A0E4B1E0C6
S113009001C01D92AC3BB207E1F70E948C020C94A4
S11300A091020C94000089E190E00E9408020E94F1
S11300B05B0178946AE082E091E00E94370208953F
S11300C08AEE0E941302809141010E9413028091E2
S11300D000010E9413028AE50E94130208951092FF
S11300E04401109241011092420110925001109269
S11300F0400110924301109200010E946000089593
S113010080915101813001F51092510180918A0151
S11301108A3E21F480918C018A3531F0EAE8F1E0DD
S1130120108211821282089580918B018E3E39F4DF
S11301306AE089E091E00E9437020E946F00EAE8D9
S1130140F1E010821182128208950E948000809151
S11301504F01813009F0AEC010924F0180914B01E4
S11301608130B1F480914C01811112C080914D0114
S113017081110EC080914E01813051F48BE0809347
S11301805001EBE4F1E010821182128213821DC04F
S113019080914B01811119C080914C018130A9F4E7
S11301A080914D01813089F480914E0181110DC0FF
S11301B086E180935001EBE4F1E010821182128217
S11301C0138281E08093440104C080914401813012
S11301D0E9F49091400180915001981799F0809131
S11301E042018F5F80FF03C0809342010BC01092D5
S11301F04201809141018F5F809341010E94600020
S113020010924401809150018093400180914701F4
S1130210813021F580914801811120C080914901EC
S113022081111CC080914A018130C1F48091010187
S11302308F5F80930101853041F4809100018F5FCD
S11302408093000181E0809301010E946000E7E453
S1130250F1E0108211821282138208958091470185
S1130260811128C080914801813021F58091490194
S1130270813001F580914A0181111CC080910101F6
S113028081508093010181110DC080910001815042
S11302908093000194E090930101811103C081E0F7
S11302A0809300010E946000E7E4F1E01082118273
S11302B012821382089584B1807F84B981E080938F
S11302C068008FE080936B0008951F920F920FB621
S11302D00F9211248F939F93EF93FF9383B191E037
S11302E090934F018F70823059F020F4813009F4DB
S11302F048C085C0843021F1883009F461C07FC0D2
S1130300E091460181E08E0F80934601F0E081E0A8
S113031080935401E55BFE4F8083E09146018E0F8C
S113032080934601F0E010925301E55BFE4F10828A
S113033080914601843008F462C0109246015FC087
S1130340E091460181E08E0F80934601F0E0109227
S11303505401E55BFE4F1082E091460181E08E0F6F
S113036080934601F0E081E080935301E55BFE4F0A
S1130370808380914601843008F441C01092460184
S11303803EC0E091450181E08E0F80934501F0E08D
S113039081E080935501E95BFE4F8083E091450144
S11303A08E0F80934501F0E010925201E95BFE4FFD
S11303B0108280914501843010F1109245011FC0D4
S11303C0E091450181E08E0F80934501F0E01092A9
S11303D05501E95BFE4F1082E091450181E08E0FEB
S11303E080934501F0E081E080935201E95BFE4F88
S11303F0808380914501843010F010924501FF9173
S1130400EF919F918F910F900FBE0F901F901895B1
S11304109093C5008093C40088E98093C1008EE066
S11304208093C2000895E0ECF0E0908195FFFDCF49
S11304308093C60008958A3010F4805D0895895C25
S11304400895CF93DF93C82F82958F700E941B026B
S1130450D82F8C2F8F700E941B02C82F8D2F0E94C3
S113046013028C2F0E941302DF91CF910895CF9332
S1130470DF93EC016A3051F48881882391F021964E
S11304800E94130289918111FBCF0BC06B3049F498
S11304908881882331F021960E942102899181115B
S11304A0FBCFDF91CF9108951F920F920FB60F9259
S11304B011248F939F93AF93BF93EF93FF939091E6
S11304C0C60090938901E091560181E08E0F8093DC
S11304D05601F0E0E95AFE4F9083833091F4EAE844
S11304E0F1E0A7E5B1E08D919C9111979183808310
S11304F012968C91828313821092560181E080932C
S11305005101FF91EF91BF91AF919F918F910F9006
S11305100FBE0F901F9018950E9453000E94A500D3
S1090520FDCFF894FFCFAB
S1130526010153544152540A00496E697469616C5D
S11305366C697A696E672E2E2E2E0A0041540D0AB6
S11305460041542B4E414D453D47656D696E692DFD
S1130556320D0A0041542B52455345540D0A0000EE
S9030000FC
